:031EFE00DFFE22E2
:0F1E8500AE070E1EEE60077F32121EFE80F522A2
:0F1E9400AE070E1EEE60077F84121EFE80F52241
:0F1EA300AD070D1DED60077F64121E8580F522CF
:0F1EB200AC070C1CEC60077F0A121EA380F52200
:0F1EC100AB070B1BEB60077F64121EB280F5228C
:031F01002020207D
:041EEE00C109C188DD
:101844007830EBF208EAF208E9F27F007E007D00CE
:101854007C001216A2EF600302190A7830E2FB083A
:10186400E2FA08E2F99001C7120938FFE4FCFDFE30
:101874007808120B4EC004C005C006C0077830E2D9
:10188400FB08E2FA08E2F99001C6120938FFD00316
:10189400D002D001D000EB4FFFEAFEE9FDE8FCC026
:1018A40004C005C006C0077830E2FB08E2FA08E28B
:1018B400F99001C8120938FFE4FCFDFE7810120B00
:1018C4004ED003D002D001D000EF4BFFEE4AFEED24
:1018D40049FDEC48FCC004C005C006C0077830E2EE
:1018E400FB08E2FA08E2F99001C9120938FFE4FCA6
:1018F400FDFE7818120B4ED003D002D001D000EFB9
:0D1904004BFFEE4AFE22C2097E007F032247
:101B680078347C007DFE7BFF7A1F79017E007F033D
:101B78001208F9E4FF74002FF8E2642E600A74007A
:101B88002FF8E260030F80ED74002FF8E2601C0F5D
:101B9800E4FEEF2EFD2400F8E2600F74002DF8E259
:101BA800FD74342EF8EDF20E80E81FEFC39409504F
:101BB80029EFC3940B500A74002FF87420F20F8099
:101BC800F07F08742C2FF8E2FE74002FF8EEF20F65
:0C1BD800EFB40BEFE4780BF2FF227FE289
:011BE40022DE
:10000300782DEBF208EAF208E9F2121D30EF6003F3
:100013000204851215BDEF6003020480782DE2FB14
:1000230008E2FA08E2F9121844E4FCFD782DE2FB39
:1000330008E2FA08E2F91216A2EF600302047B78E1
:100043002DE2FB08E2FA08E2F99001FE120938FFFB
:100053006455600AEF64AA6005C2097F0522782D02
:10006300E2FB08E2FA08E2F990001D120938FFE406
:10007300FCFDFE7808120B4EC004C005C006C00785
:10008300782DE2FB08E2FA08E2F990001C12093825
:10009300FFD003D002D001D000EB4FFFEAFEE9FD11
:1000A300E8FCC004C005C006C007782DE2FB08E2E7
:1000B300FA08E2F990001E120938FFE4FCFDFE780D
:1000C30010120B4ED003D002D001D000EF4BFFEE45
:1000D3004AFEED49FDEC48FCC004C005C006C0075C
:1000E300782DE2FB08E2FA08E2F990001F120938C2
:1000F300FFE4FCFDFE7818120B4ED003D002D001B2
:10010300D000EF4BF54BEE4AF54AED49F549EC4883
:10011300F548782DE2FB08E2FA08E2F990000F12A5
:100123000938FE90000E120938FDEEF529EDF52A87
:10013300900025120938FFE4FCFDFE7808120B4EEF
:10014300C004C005C006C007782DE2FB08E2FA0828
:10015300E2F9900024120938FFD003D002D001D075
:1001630000EB4FFFEAFEE9FDE8FCC004C005C00652
:10017300C007782DE2FB08E2FA08E2F990002612A4
:100183000938FFE4FCFDFE7810120B4ED003D002B9
:10019300D001D000EF4BFFEE4AFEED49FDEC48FCE9
:1001A300C004C005C006C007782DE2FB08E2FA08C8
:1001B300E2F9900027120938FFE4FCFDFE781812DB
:1001C3000B4ED003D002D001D000EF4BF547EE4ADF
:1001D300F546ED49F545EC48F544782DE2FB08E298
:1001E300FA08E2F9900010120938FFE4FCFDFEABB7
:1001F30047AA46A945A844120A0DA804A905AA06B8
:10020300AB07E4FCFDEB252AFFEA3529FEED39FDBA
:10021300EC38FCEF253FFFEE353EFEED353DFDECC2
:10022300353CFCEF254BF527EE354AF526ED3549F0
:10023300F525EC3548F524782DE2FB08E2FA08E2CF
:10024300F9900021120938FFE4FCFDFE7808120B37
:100253004EC004C005C006C007782DE2FB08E2FAD1
:1002630008E2F9900020120938FFD003D002D00130
:10027300D000EB4FFFEAFEE9FDE8FCC004C005C077
:1002830006C007782DE2FB08E2FA08E2F9900022A3
:10029300120938FFE4FCFDFE7810120B4ED003D098
:1002A30002D001D000EF4BFFEE4AFEED49FDEC48D2
:1002B300FCC004C005C006C007782DE2FB08E2FAC3
:1002C30008E2F9900023120938FFE4FCFDFE7818D8
:1002D300120B4ED003D002D001D000EF4BFFEE4AF9
:1002E300FEED49FDEC48FCC3EF9527FFEE9526FE96
:1002F300ED9525FDEC9524FCEF254BF53FEE354AB6
:10030300F53EED3549F53DEC3548F53C782DE2FBFE
:1003130008E2FA08E2F990000D120938F522C31336
:10032300FFEF253FFFE4353EFEE4353DFDE4353C7C
:10033300FCC007AF22AB07E4FAF9F8D007120A981A
:100343008F3F8E3E8D3D8C3CE47FF57EFFFDFCAB05
:100353003FAA3EA93DA83CD3120B2A500302041B1B
:10036300782DE2FB08E2FA08E2F990002D12093831
:10037300FFE4FCFDFE7808120B4EC004C005C00666
:10038300C007782DE2FB08E2FA08E2F990002C128C
:100393000938FFD003D002D001D000EB4FFFEAFEB3
:1003A300E9FDE8FCC004C005C006C007782DE2FBE8
:1003B30008E2FA08E2F990002E120938FFE4FCFD86
:1003C300FE7810120B4ED003D002D001D000EF4BB9
:1003D300FFEE4AFEED49FDEC48FCC004C005C00633
:1003E300C007782DE2FB08E2FA08E2F990002F1229
:1003F3000938FFE4FCFDFE7818120B4ED003D0023F
:10040300D001D000EF4BF532EE4AF531ED49F5302E
:10041300EC48F52FC2088005C2097F0422782DE23B
:10042300FB08E2FA08E2F990000C120938FE90008A
:100433000B120938FDED7003EE640260037F0422A2
:10044300E4F528E522D3940140090528E52213F5B4
:100453002280F0853243853142853041852F4078B3
:100463002DE2FB08E2FA08E2F990000D120938F5D3
:1004730022E4F537D209FF22C2097F0322C2097F92
:070483000222C2097F0122E1
:10048A007838EBF208EAF208E9F2E537C395225028
:10049A000302074F780CE260030206FFAF2EAE2D6F
:1004AA00AD2CAC2B7802120B4E8F2E8E2D8D2C8CF0
:1004BA002BE4FB7A02F9F8AF2EAE2DAD2CAC2B1241
:1004CA000A98A804A905AA06AB07E4FCFDEB252AAD
:1004DA00FFEA3529FEED39FDEC38FCEF254BFFEE3E
:1004EA00354AFEED3549FDEC3548FC7800120B61C2
:1004FA007800E2FC08E2FD08E2FE08E2FF7838E252
:10050A00FB08E2FA08E2F91216A2EF6013783BE25E
:10051A00FB08E2FA08E2F9E4F5F01209EE7F20227C
:10052A00E52EFFE52D5401FE7808EEF208EFF27889
:10053A0038E2FB08E2FA08E2F97809E22403FF1834
:10054A00E234008F82F583120938F52B7809E22408
:10055A0002FF18E234008F82F583120938F52C78ED
:10056A0009E22401FF18E234008F82F58312093868
:10057A00F52D7808E2FE08E2F5828E83120938F535
:10058A002EAF2EAE2DAD2CAC2B020690780CE2C30A
:10059A00940440030206987804E2FC08E2FD08E2AB
:1005AA00FE08E2FF7802120B4E8F368E358D348CA0
:1005BA0033E4FB7A02F9F8AF36AE35AD34AC331218
:1005CA000A98A804A905AA06AB07E4FCFDEB252AAC
:1005DA00FFEA3529FEED39FDEC38FC7800E2FB082C
:1005EA00E2F908E2FA08E2CBF8C3120B2A60030226
:1005FA000698E536FFE5355401FE7808EEF208EF75
:10060A00F27838E2FB08E2FA08E2F97809E2240310
:10061A00FF18E234008F82F583120938F53378091E
:10062A00E22402FF18E234008F82F583120938F5BA
:10063A00347809E22401FF18E234008F82F583122C
:10064A000938F5357808E2FE08E2F5828E83120948
:10065A0038F5367804E2FC08E2FD08E2FE08E224F6
:10066A0001FFE43EFEE43DFDE43CFCAB36AA35A9BD
:10067A0034A833C3120B2A7015780CE204F2AF3691
:10068A00AE35AD34AC337804120B61020596AF2E49
:10069A00AE2DAD2CAC2BEC540FFC8F2E8E2D8D2C49
:1006AA00F52B7BEF7AFF79FF780FC3120B2A506381
:1006BA00783BE2FB08E2FA08E2F9E4F5F01209EE07
:1006CA007FF67EFF7DFF7C0FAB2EAA2DA92CA82BCF
:1006DA00C3120B2A50037F23227FF77EFF7DFF7C04
:1006EA000FAB2EAA2DA92CA82BC3120B2A70037F9D
:1006FA0024227F2F22AF2EAE2DAD2CAC2BEF24015E
:10070A00F52EE43EF52DE43DF52CE43CF52B780C72
:10071A00E214F2E52E24FEFFE52D34FFFEE52C342B
:10072A00FFFDE52B34FFFCA928A801120B4EEF258B
:10073A0027F536EE3526F535ED3525F534EC352435
:10074A00F533E4F537E537C39522400302082678E6
:10075A003BE2FB08E2FA08E2F9EA494B6075AF3B73
:10076A00AE3AAD39AC38EC4D4E4F6054E4FF7E02E0
:10077A00FDFCAB3BAA3AA939A838C3120B2A783B2D
:10078A00E2FB08E2FA08E2F94023740275F000126B
:10079A0009EEC3E53B9400F53BE53A9402F53AE5E8
:1007AA00399400F539E5389400F5388026E53A851C
:1007BA003BF01209EEE4F53BF53AF539F5388013CA
:1007CA00783BE2FB08E2FA08E2F9E4F5F01209EEF6
:1007DA007F2E22AF36AE35AD34AC337838E2FB0823
:1007EA00E2FA08E2F91216A2EF6013783BE2FB087C
:1007FA00E2FA08E2F9E4F5F01209EE7F2122AF36B7
:10080A00AE35AD34AC33EF2401F536E43EF535E4CC
:0F081A003DF534E43CF53305377F00227F2A2279
:101E1200EF543FFEBE0F037F0F22EF5418FE7002F5
:101E2200FF22BE10037F1022EF5418FFBF08037F6A
:051E320008227FFF22E1
:0A0DFD007838EBF208EAF208E9F298
:100E0700E408F208F2783BE2FE08E2FFC3EE940240
:100E170040030210867838E2FB08E2FA08E2F98F0D
:100E2700828E83120938FF64E57003021078EF7031
:100E3700037F1322E4783DF2783DE2FFC3940B5021
:100E47002C18E22FFF18E23400FE7838E2FB08E2A4
:100E5700FA08E2F98F828E83120938FF783DE2247F
:100E670000F8E2B50707783DE204F280CB783DE26F
:100E7700640B60030210787838E2FB08E2FA08E2B4
:100E8700F9783CE2240BFF18E234008F82F58312D5
:100E97000938F523300B0AFF121E12EF60107F117D
:100EA70022AF23121E12EF641060037F12227838DC
:100EB700E2FB08E2FA08E2F9783CE2241BFF18E2B9
:100EC70034008F82F583120938FFE4FCFDFE7808B1
:100ED700120B4EC004C005C006C0077838E2FB08F5
:100EE700E2FA08E2F9783CE2241AFF18E234008FAC
:100EF70082F583120938FFD003D002D001D000EB6E
:100F07004FFFEAFEE9FDE8FCC004C005C006C007C4
:100F17007838E2FB08E2FA08E2F9783CE22414FFA9
:100F270018E234008F82F583120938FFE4FCFDFED6
:100F37007810120B4ED003D002D001D000EF4BFF38
:100F4700EE4AFEED49FDEC48FCC004C005C006C0F2
:100F5700077838E2FB08E2FA08E2F9783CE2241560
:100F6700FF18E234008F82F583120938FFE4FCFD95
:100F7700FE7818120B4ED003D002D001D000EF4BF1
:100F8700F543EE4AF542ED49F541EC48F54078382E
:100F9700E2FB08E2FA08E2F9783CE2241DFF18E2D6
:100FA70034008F82F583120938FFE4FCFDFE7808D0
:100FB700120B4EC004C005C006C0077838E2FB0814
:100FC700E2FA08E2F9783CE2241CFF18E234008FC9
:100FD70082F583120938FFD003D002D001D000EB8D
:100FE7004FFFEAFEE9FDE8FCC004C005C006C007E4
:100FF7007838E2FB08E2FA08E2F9783CE2241EFFBF
:1010070018E234008F82F583120938FFE4FCFDFEF5
:101017007810120B4ED003D002D001D000EF4BFF57
:10102700EE4AFEED49FDEC48FCC004C005C006C011
:10103700077838E2FB08E2FA08E2F9783CE2241F75
:10104700FF18E234008F82F583120938FFE4FCFDB4
:10105700FE7818120B4ED003D002D001D000EF4B10
:10106700F53BEE4AF53AED49F539EC48F5387F009E
:1010770022783CE22420F218E23400F2020E0C7FC0
:011087001454
:011088002245
:0A13E6007834EBF208EAF208E9F2AD
:1013F000AF32AE31AD30AC2FAB43AA42A941A840C9
:10140000C3120B2A700BAE31AD30AC2F85322E805B
:1014100009AE42AD41AC4085432E8E2D8D2C8C2BD8
:10142000E52E24FEFFE52D34FFFEE52C34FFFDE51F
:101430002B34FFFCA928A801120B4EEF2527F53607
:10144000EE3526F535ED3525F534EC3524F533E468
:10145000F537783BE4F208F208F27834E2FB08E270
:10146000FA08E2F912048AEF701A7834E2FB08E213
:10147000FA08E2F9A20A920B120DFD7837EFF2BFDB
:10148000140280CE7837E26009300A037F11227F90
:101490001222AE42AD41AC4085432E8E2D8D2C8C58
:1014A0002BE52E24FEFFE52D34FFFEE52C34FFFD59
:1014B000E52B34FFFCA928A801120B4EEF2527F5D8
:1014C00036EE3526F535ED3525F534EC3524F53396
:0714D000E4F537780CF2FF90
:0114D70022F2
:0A14D800782DEBF208EAF208E9F2C1
:1014E2002009030215BAE47833F27830E2FB08E20D
:1014F200FA08E2F912091FB45C09E22401F218E2C7
:101502003400F27833E2FF18E22FF218E23400F2EC
:10151200E47833F27830E2FB08E2FA08E2F908E212
:10152200F582758300120938602F645C602B783372
:10153200E2C3940C50237830E2FB08E2FA08E2F9A5
:1015420008E2FFF582758300120938FE74002FF855
:10155200EEF27833E204F280BB7833E2B40C037F1C
:1015620010227833E2FF2400F8E4F2121B68EF70D5
:10157200447830E2FB08E2FA08E2F908E2F5827503
:1015820083001209387014782DE2FB08E2FA08E2AF
:10159200F9D20A1213E6EF701CFF227833E204F24A
:1015A200782DE2FB08E2FA08E2F9C20A1213E6EF2A
:0A15B20070030215057FFF227F0F72
:0115BC00220C
:021EF200C10C21
:101E7400C287D286D28575A0FFE5A020E7FBC28584
:011E8400223B
:051E5C007816E22FFFE3
:101E6100121E74C287C2868FA0D2857F01121E8581
:031E7100C2852205
:101DEA00782DE2FB0808E2F92401F218E2FA34003D
:051DFA00F212091FFFB9
:101DFF00121E74D287C2868FA0D2857F01121E85D4
:031E0F00C2852267
:101E3700D2847F30121E617F01121EA37F01121E02
:101E4700617F01121EA37F06121E617F01121EA36E
:051E57007F0C021E617A
:0A1AE900782DEBF208EAF208E9F2AA
:101AF30078157480F208F2200C33E47830F27830F1
:101B0300E2FFC394205023121E5C7815E2FF121EDD
:101B130061E47831F2121DEA7831E204F2E2C3940F
:101B23001040F27830E204F280D4D20C227815749B
:101B330088F2E47830F27830E2FFC3942050231225
:101B43001E5C7815E2FF121E61E47831F2121DEA81
:101B53007831E204F2E2C3941040F27830E204F206
:041B630080D4C20C5C
:011B6700225B
:0A1A6200780DEBF208EAF208E9F251
:101A6C0078157480F208F2121E377F34121E61E46E
:101A7C007813F27813E2FFC394205025121E5C7881
:101A8C0015E2FF121E61E47814F2780D121DEC7849
:101A9C0014E204F2E2C3941040F07813E204F280F2
:101AAC00D278157488F2E47813F27813E2FFC394B9
:101ABC00205025121E5C7815E2FF121E61E478148A
:101ACC00F27810121DEC7814E204F2E2C394104088
:0D1ADC00F07813E204F280D27F36021E6122
:101CCF00782DEFF208EDF208EBF208EAF208E9F2EC
:101CDF007F30121E61782EE224FE601114601514FD
:101CEF0060192403701D782DE224808013782DE273
:101CFF002490800C782DE224888005782DE224989A
:101D0F007832F27832E2FF121E61782FE2FB08E29E
:101D1F00FA08E2F912091F6007782F121DEC80EA0A
:011D2F002291
:0F1ED0007D01E4FF121CCF7F01121EC1021EF91B
:051EF9007F01021E61E3
:101C5B007F34121E61782D7480F2E408F2782DE245
:101C6B00FF04F2121E617F80121E61E4782FF2E4F2
:101C7B00FF121DFF782FE204F2E2C3941040F078BC
:101C8B002EE204F2E2C3942040D3782D7480F2E468
:101C9B0008F2782DE2FF04F2121E617F88121E619A
:101CAB00E4782FF2E4FF121DFF782FE204F2E2C377
:101CBB00941040F0782EE204F2E2C3942040D37FDC
:041CCB0036021E615E
:101DC0004000000000954000000000954800000120
:101DD000AA876940000000FF7700000000FF58005C
:0A1DE000000000FF5100000000FFAA
:041EDF007FD07E072B
:0B1EE300EF1FAC0670011E4C70F622D1
:0A1BE500784EEBF208EAF208E9F28C
:101BEF00E408F2D2B27FFF121781C2B2784EE2FB45
:101BFF0008E2FA08E2F912091FFF1217819000019B
:101C0F00121773900002121773784EE2FB08E2FA74
:101C1F0008E2F990000312177D784EE2FB08E2FA12
:101C2F0008E2F990000412177D784EE2FB08E2FA01
:101C3F0008E2F990000512177D1219117851E2048C
:0B1C4F00F2EFB4FF06E2C394C840EEC1
:011C5A002267
:101D300078327C007DFE7BFF7A1D79C07E007F06B5
:101D40001208F978287401F2D2B2E47831F27FFFF8
:101D50001217817831E204F2E2C3940F40F0C2B26C
:101D6000E47830F27BFE7A007932121BE57830E2BB
:101D700004F2E2B4C805D2B27F0122EFB401E5D289
:081D8000B27FFF1217817F0002
:011D88002238
:1015BD0078327C007DFE7BFF7A1D79C67E007F062A
:1015CD001208F978387C007DFE7BFF7A1D79CC7E80
:1015DD00007F061208F9783E7C007DFE7BFF7A1DA8
:1015ED0079D27E007F061208F978447C007DFE7B5F
:1015FD00FF7A1D79D87E007F061208F9E47830F263
:10160D007FFF1217817830E204F2E2C3941F40F09D
:10161D00C2B2E47830F27BFE7A007932121BE578A3
:10162D0031EFF218E204F2E2FFC394C84007EF94E1
:10163D00C8400280427831E2B401DBE418F27BFE4F
:10164D007A007938121BE57831EFF218E204F2E2F4
:10165D00C394C8400280207831E2B401E1E418F26D
:10166D007BFE7A007944121BE57831EFF218E20423
:10167D00F2E2C394C84005D2B27F02227BFE7A000B
:10168D00793E121BE5EF70D87828F2D2B27FFF12A7
:04169D0017817F0032
:0116A1002226
:0F11C8007817120B61781BEBF208EAF208E9F2D4
:1011D70078227C007DFE7BFF7A1D79DE7E007F060C
:1011E7001208F97817E2FCE4FFFEFDEC7818120B01
:1011F7003B7823EFF2781708E2FDE4FFFEE4FC7882
:1012070010120B3B7824EFF278170808E2FEE4FF90
:10121700E4FDFC7808120B3B7825EFF27817E2FC27
:1012270008E2FD08E2FE08E2FF7826EFF2C2B2E428
:10123700781FF27BFE7A007922121BE5781EEFF207
:1012470008E204F2E2B4C808D2B218E2FF7E002234
:10125700781EE270DE7820F208F27FFF121781789D
:1012670021E22401F218E23400F2C308E294641880
:10127700E2940040E57FFE121781E47820F208F23D
:101287007820E2FE08E2FFC3EE9402501E781BE2CC
:10129700FB08E2FA08E2F98F828E8312177D782124
:1012A700E22401F218E23400F280D57FFF121781A1
:1012B7007FFF121781121911781EEFF2541F640570
:1012C7006007D2B27E007F0322121911BFFFFAD244
:0912D700B27FFF121781E4FEFF53
:0112E00022EB
:0F16A200783E120B617842EBF208EAF208E9F2A7
:1016B10078487C007DFE7BFF7A1D79E47E007F0601
:1016C1001208F9783EE2FCE4FFFEFDEC7818120BFB
:1016D1003B7849EFF2783E08E2FDE4FFFEE4FC7856
:1016E10010120B3B784AEFF2783E0808E2FEE4FF65
:1016F100E4FDFC7808120B3B784BEFF2783EE2FCFC
:1017010008E2FD08E2FE08E2FF784CEFF2C2B2E423
:101711007847F27BFE7A007948121BE57847E204AC
:10172100F2E2B4C8037F0422EF70E8121911BFFE80
:10173100FAE47845F208F21219117842E2FB08E264
:10174100FA08E2F908E2FC08E2F5828C83EF12095B
:10175100777846E22401F218E23400F2C3E29402FF
:1017610040D5121911121911D2B27FFF1217817FC0
:011771000077
:011772002254
:0E177300784EE2FB08E2FA08E2F9120938FFAC
:101781008F20A20792B1C2B07828E26003121EDF57
:10179100D2B07828E26003121EDFA20692B1C2B075
:1017A1007828E26003121EDFD2B07828E2600312CB
:1017B1001EDFA20592B1C2B07828E26003121EDFDB
:1017C100D2B07828E26003121EDFA20492B1C2B047
:1017D1007828E26003121EDFD2B07828E26003129B
:1017E1001EDFA20392B1C2B07828E26003121EDFAD
:1017F100D2B07828E26003121EDFA20292B1C2B019
:101801007828E26003121EDFD2B07828E26003126A
:101811001EDFA20192B1C2B07828E26003121EDF7E
:10182100D2B07828E26003121EDFA20092B1C2B0EA
:101831007828E26003121EDFD2B07828E26003123A
:031841001EDF2285
:10191100D2B3D2B07828E26003121EDFC2B07828B9
:10192100E26003121EDFA2B39207D2B07828E26010
:1019310003121EDFC2B07828E26003121EDFA2B3D9
:101941009206D2B07828E26003121EDFC2B0782876
:10195100E26003121EDFA2B39205D2B07828E260E2
:1019610003121EDFC2B07828E26003121EDFA2B3A9
:101971009204D2B07828E26003121EDFC2B0782848
:10198100E26003121EDFA2B39203D2B07828E260B4
:1019910003121EDFC2B07828E26003121EDFA2B379
:1019A1009202D2B07828E26003121EDFC2B078281A
:1019B100E26003121EDFA2B39201D2B07828E26086
:1019C10003121EDFC2B07828E26003121EDFA2B349
:0519D1009200AF20228E
:1012E1004641543332206279206E7A7900B2E2CAE3
:1012F100D4D6D02E2E2E00B2BBCAC7464154CFB58C
:10130100CDB300B2BBD6A7B3D6464154465300B2C3
:10131100D9D7F7B3C9B9A600B6C1425042B4EDCE90
:10132100F300B3F5CABCBBAFB4EDCEF300B8B4CE95
:10133100BBB4EDCEF300CEB4D6AAB4EDCEF300B17A
:10134100A3C1F4C9C8C7F800C3BFB4D8C9C8C7F896
:1013510000B4F2BFAACEC4BCFEB2E2CAD400CEC46D
:10136100BCFEC3FCC3FBCAA7B0DC00B4F2BFAACE6B
:10137100C4BCFECAA7B0DC00464154C3BBD3D0B342
:10138100F5CABCBBAF00CFD4CABECEC4BCFEB2E26C
:10139100CAD400464154B6C1B4EDCEF300D5E2CA79
:1013A100C7B1A3C1F4B4D800D6BBCAC7BBB5B4D8C2
:1013B10000D5E2CAC7D7EEBAF3B4D800CEC4BCFE9A
:1013C100C4A9CEB200B6C1C9C8C7F8B4EDCEF30006
:1013D100B6C1D7EEBAF3C9C8C7F800564544494F5C
:0513E1002E42494E0000
:041EF400822900003F
:10108900782FEBF208EAF208E9F2782DEEF208EF90
:10109900F24E70030211C718E2FE08E2FF7C277DB9
:1010A90010120999EF2430FF782FE2FB08E2FA08C1
:1010B900E2F9EF120965782DE2FE08E2FF7C277D4F
:1010C900101209997E037FE8CFCDCFCECCCE12097D
:1010D90099EF2430FF782FE2FB08E2FA08E2F99051
:1010E9000001EF120977782DE2FE08E2FF7C277DE7
:1010F900101209997E037FE8CFCDCFCECCCE12094D
:10110900997E007F64CFCDCFCECCCE120999EF2442
:1011190030FF782FE2FB08E2FA08E2F9900002EFCB
:10112900120977782DE2FE08E2FF7C277D1012096B
:10113900997E037FE8CFCDCFCECCCE1209997E0020
:101149007F64CFCDCFCECCCE1209997E007F0ACF56
:10115900CDCFCECCCE120999EF2430FF782FE2FB08
:1011690008E2FA08E2F9900003EF120977782DE214
:10117900FE08E2FF7C277D101209997E037FE8CFE4
:10118900CDCFCECCCE1209997E007F64CFCDCFCE04
:10119900CCCE1209997E007F0ACFCDCFCECCCE120C
:1011A9000999ED2430FF782FE2FB08E2FA08E2F909
:0F11B900900004EF120977900005E412097722E5
:101D8900EF603375F064842430120965EF75F064EF
:101D990084AEF0EE75F00A842430900001120977C0
:101DA900EE75F00A84E5F02430900002120977906C
:071DB9000003E41209772288
:100B6D00E4782BF208F2750E01750F007510521214
:100B7D001E377BFF7A1279E17D01E4FF121CCF7FD6
:100B8D0001121EC17BFF7A1279EE7D02E4FF121C69
:100B9D00CFAB0EAA0FA910120003EF601F14603423
:100BAD0014602914601E14600B1470307BFF7A12D0
:100BBD0079F8802E7BFF7A13790480267BFF7A13D8
:100BCD007910801E7BFF7A13791980167BFF7A13BB
:100BDD007923800E7BFF7A13792E80067BFF7A13A3
:100BED0079377D03E4FF121CCF7F01121EC1121E47
:100BFD00F97BFF7A1379407D01E4FF121CCF7B0056
:100C0D007A007908AF2AAE291210897B007A007913
:100C1D00087D02E4FF121CCF7BFF7A1379497D0317
:100C2D00E4FF121CCF7B007A007908AF22121D89D8
:100C3D007D04E4FF121CCF7F01121EC1121EF97B31
:100C4D00FF7A1379527D01E4FF121CCF7F01121E32
:100C5D00C17BFF7A1279EE7D02E4FF121CCF783052
:100C6D0074FFF2087413F20874DCF2AB0EAA0FA92C
:100C7D00101214D8EF601424F16020241060142495
:100C8D00EF70207BFF7A13795F801E7BFF7A1379DB
:100C9D001080167BFF7A13796C800E7BFF7A1379A7
:100CAD007980067BFF7A1379377D03E4FF121CCF21
:100CBD007F01121EC1121EF97BFF7A1379877D0108
:100CCD00E4FF121CCF7F01121EC17BFF7A1279EE59
:100CDD007D02E4FF121CCF7F01121EC1783B74FE12
:100CED00F2087400F208742BF2AB0EAA0FA91012C1
:100CFD00048AEF607A24DF606724FE602714603376
:100D0D0024FA7003020D9624FC6046146034240FFF
:100D1D006003020DA57BFF7A1379947D03E4FF1226
:100D2D001CCF80FE7BFF7A13799E7D03E4FF121C9E
:100D3D00CF80FE7BFF7A1379A97D03E4FF121CCFD0
:100D4D0080FE7BFF7A1379B27D03E4FF121CCF8006
:100D5D00FE7BFF7A1379BD7D03E4FF121CCF80FE6D
:100D6D007BFF7A1379C67D03E4FF121CCF80FE7BD7
:100D7D00FF7A1379107D03E4FF121CCF782AE22449
:100D8D0001F218E23400F2801E7BFF7A1379D17DD7
:100D9D0003E4FF121CCF80FE7BFF7A1379377D03AE
:100DAD00E4FF121CCF80FE7829E2FE08E2FF7B00F3
:100DBD007A0079081210897B007A0079087D04E4A5
:100DCD00FF121CCF121EF9121C5B7F36121E61AB77
:100DDD000EAA0FA910121AE9783B74FEF2087400DE
:100DED00F208742BF2AB0EAA0FA91012048A80DF41
:030000000219D60C
:0C19D600787FE4F6D8FD75814B021A1DE5
:10082900E709F608DFFA8046E709F208DFFA803EB1
:1008390088828C83E709F0A3DFFA8032E309F6089E
:10084900DFFA8078E309F208DFFA807088828C8306
:10085900E309F0A3DFFA806489828A83E0A3F608BA
:10086900DFFA805889828A83E0A3F208DFFA804C94
:1008790080D280FA80C680D4806980F2803380106B
:1008890080A680EA809A80A880DA80E280CA8033D4
:1008990089828A83ECFAE493A3C8C582C8CCC5834C
:1008A900CCF0A3C8C582C8CCC583CCDFE9DEE7801C
:1008B9000D89828A83E493A3F608DFF9ECFAA9F09B
:1008C900EDFB2289828A83ECFAE0A3C8C582C8CCF1
:1008D900C583CCF0A3C8C582C8CCC583CCDFEADE0A
:1008E900E880DB89828A83E493A3F208DFF980CC6C
:1008F90088F0EF60010E4E60C388F0ED2402B40465
:100909000050B9F582EB2402B4040050AF2323450B
:06091900822390087973AF
:10091F00BB010689828A83E0225002E722BBFE02D6
:09092F00E32289828A83E4932209
:10093800BB010CE58229F582E5833AF583E0225074
:1009480006E92582F8E622BBFE06E92582F8E222BE
:0D095800E58229F582E5833AF583E49322D8
:10096500BB010689828A83F0225002F722BBFE0171
:02097500F3226B
:10097700F8BB010DE58229F582E5833AF583E8F0B6
:10098700225006E92582C8F622BBFE05E92582C862
:02099700F2224A
:10099900BC000BBE0029EF8DF084FFADF022E4CC42
:1009A900F875F008EF2FFFEE33FEEC33FCEE9DEC0B
:1009B900984005FCEE9DFE0FD5F0E9E4CEFD22ED51
:1009C900F8F5F0EE8420D21CFEADF075F008EF2F9B
:1009D900FFED33FD4007985006D5F0F222C398FD8C
:0509E9000FD5F0EA2229
:1009EE00BB010A89828A83F0E5F0A3F0225006F754
:0F09FE0009A7F01922BBFE06F3E5F009F3192251
:100A0D00E88FF0A4CC8BF0A42CFCE98EF0A42CFC88
:100A1D008AF0EDA42CFCEA8EF0A4CDA8F08BF0A406
:100A2D002DCC3825F0FDE98FF0A42CCD35F0FCEB65
:100A3D008EF0A4FEA9F0EB8FF0A4CFC5F02ECD392A
:0F0A4D00FEE43CFCEAA42DCE35F0FDE43CFC2297
:100A5C0075F008758200EF2FFFEE33FECD33CDCC51
:100A6C0033CCC58233C5829BED9AEC99E5829840D4
:100A7C000CF582EE9BFEED9AFDEC99FC0FD5F0D6B1
:100A8C00E4CEFBE4CDFAE4CCF9A88222B800C1B9DB
:100A9C000059BA002DEC8BF084CFCECDFCE5F0CB19
:100AAC00F97818EF2FFFEE33FEED33FDEC33FCEB52
:100ABC0033FB10D703994004EB99FB0FD8E5E4F90D
:100ACC00FA227818EF2FFFEE33FEED33FDEC33FCFA
:100ADC00C933C910D7059BE99A4007EC9BFCE99AEE
:100AEC00F90FD8E0E4C9FAE4CCFB2275F010EF2F33
:100AFC00FFEE33FEED33FDCC33CCC833C810D70733
:100B0C009BEC9AE899400AED9BFDEC9AFCE899F86D
:0E0B1C000FD5F0DAE4CDFBE4CCFAE4C8F92200
:100B2A00EB9FF5F0EA9E42F0E99D42F0E89C45F021
:010B3A002298
:100B3B00E8600FECC313FCED13FDEE13FEEF13FF98
:030B4B00D8F122BC
:100B4E00E8600FEFC333FFEE33FEED33FDEC33FC05
:030B5E00D8F122A9
:0C0B6100ECF208EDF208EEF208EFF222D0
:1019E200020B6DE493A3F8E493A34003F68001F2A3
:1019F20008DFF48029E493A3F85407240CC8C33306
:101A0200C4540F4420C8834004F456800146F6DFD4
:101A1200E4800B0102040810204080901EEEE47E58
:101A2200019360BCA3FF543F30E509541FFEE493C9
:101A3200A360010ECF54C025E060A840B8E493A390
:101A4200FAE493A3F8E493A3C8C582C8CAC583CABB
:101A5200F0A3C8C582C8CAC583CADFE9DEE780BE73
:011EF80000E9
:00000001FF
